{
  "contractName": "ApprovalContract",
  "abi": [
    {
      "constant": true,
      "inputs": [],
      "name": "approver",
      "outputs": [
        {
          "name": "",
          "type": "address"
        }
      ],
      "payable": false,
      "stateMutability": "view",
      "type": "function"
    },
    {
      "constant": true,
      "inputs": [],
      "name": "sender",
      "outputs": [
        {
          "name": "",
          "type": "address"
        }
      ],
      "payable": false,
      "stateMutability": "view",
      "type": "function"
    },
    {
      "constant": true,
      "inputs": [],
      "name": "receiver",
      "outputs": [
        {
          "name": "",
          "type": "address"
        }
      ],
      "payable": false,
      "stateMutability": "view",
      "type": "function"
    },
    {
      "constant": false,
      "inputs": [],
      "name": "constructor",
      "outputs": [],
      "payable": false,
      "stateMutability": "nonpayable",
      "type": "function"
    },
    {
      "constant": false,
      "inputs": [
        {
          "name": "_receiver",
          "type": "address"
        }
      ],
      "name": "deposit",
      "outputs": [],
      "payable": true,
      "stateMutability": "payable",
      "type": "function"
    },
    {
      "constant": true,
      "inputs": [],
      "name": "viewApprover",
      "outputs": [
        {
          "name": "",
          "type": "address"
        }
      ],
      "payable": false,
      "stateMutability": "pure",
      "type": "function"
    },
    {
      "constant": false,
      "inputs": [],
      "name": "approve",
      "outputs": [],
      "payable": false,
      "stateMutability": "nonpayable",
      "type": "function"
    }
  ],
  "bytecode": "0x608060405234801561001057600080fd5b50610458806100206000396000f300608060405260043610610083576000357c0100000000000000000000000000000000000000000000000000000000900463ffffffff16806312424e3f14610088578063141a8dd81461009f57806367e404ce146100f657806390fa17bb1461014d578063d93ce89c14610164578063f340fa01146101bb578063f7260d3e146101f1575b600080fd5b34801561009457600080fd5b5061009d610248565b005b3480156100ab57600080fd5b506100b4610318565b604051808273ffffffffffffffffffffffffffffffffffffffff1673ffffffffffffffffffffffffffffffffffffffff16815260200191505060405180910390f35b34801561010257600080fd5b5061010b610330565b604051808273ffffffffffffffffffffffffffffffffffffffff1673ffffffffffffffffffffffffffffffffffffffff16815260200191505060405180910390f35b34801561015957600080fd5b50610162610355565b005b34801561017057600080fd5b50610179610357565b604051808273ffffffffffffffffffffffffffffffffffffffff1673ffffffffffffffffffffffffffffffffffffffff16815260200191505060405180910390f35b6101ef600480360381019080803573ffffffffffffffffffffffffffffffffffffffff169060200190929190505050610373565b005b3480156101fd57600080fd5b50610206610406565b604051808273ffffffffffffffffffffffffffffffffffffffff1673ffffffffffffffffffffffffffffffffffffffff16815260200191505060405180910390f35b73c5fdf4076b8f3a5357c5e395ab970b5b54098fef73ffffffffffffffffffffffffffffffffffffffff163373ffffffffffffffffffffffffffffffffffffffff1614151561029657600080fd5b600160009054906101000a900473ffffffffffffffffffffffffffffffffffffffff1673ffffffffffffffffffffffffffffffffffffffff166108fc3073ffffffffffffffffffffffffffffffffffffffff16319081150290604051600060405180830381858888f19350505050158015610315573d6000803e3d6000fd5b50565b73c5fdf4076b8f3a5357c5e395ab970b5b54098fef81565b6000809054906101000a900473ffffffffffffffffffffffffffffffffffffffff1681565b565b600073c5fdf4076b8f3a5357c5e395ab970b5b54098fef905090565b60003411151561038257600080fd5b336000806101000a81548173ffffffffffffffffffffffffffffffffffffffff021916908373ffffffffffffffffffffffffffffffffffffffff16021790555080600160006101000a81548173ffffffffffffffffffffffffffffffffffffffff021916908373ffffffffffffffffffffffffffffffffffffffff16021790555050565b600160009054906101000a900473ffffffffffffffffffffffffffffffffffffffff16815600a165627a7a723058207dbd60604295baad6c2b14c2f9a6fc3c566aa8bbdba0f7835fd5f9f6e3fbb0690029",
  "source": "pragma solidity ^0.4.18;\r\n\r\ncontract ApprovalContract {\r\n\r\n  address public sender;\r\n  address public receiver;\r\n  address constant public approver = 0xC5fdf4076b8F3A5357c5E395ab970B5B54098Fef;\r\n\r\n  function constructor() public {\r\n    // tbd\r\n  }\r\n\r\n  function deposit(address _receiver) external payable {\r\n    require(msg.value > 0);\r\n    sender = msg.sender;\r\n    receiver = _receiver;\r\n  }\r\n\r\n  function viewApprover() external pure returns(address) {\r\n    return(approver);\r\n  }\r\n\r\n  function approve() external {\r\n    require(msg.sender == approver);\r\n    receiver.transfer(this.balance);\r\n  }\r\n\r\n}\r\n",
  "sourcePath": "C:\\Users\\ctufaro_admin\\My Projects\\ctufaro.github.io\\Game\\ethercontracts\\contracts\\ApprovalContract.sol",
  "compiler": {
    "name": "solc",
    "version": "0.4.24+commit.e67f0147.Emscripten.clang"
  },
  "schemaVersion": "2.0.1",
  "updatedAt": "2018-12-04T14:20:44.991Z"
}