{
  "contractName": "Betting",
  "abi": [
    {
      "constant": true,
      "inputs": [
        {
          "name": "",
          "type": "address"
        }
      ],
      "name": "playerInfo",
      "outputs": [
        {
          "name": "amountBet",
          "type": "uint256"
        },
        {
          "name": "teamSelected",
          "type": "uint16"
        }
      ],
      "payable": false,
      "stateMutability": "view",
      "type": "function"
    },
    {
      "constant": true,
      "inputs": [],
      "name": "totalBetsTwo",
      "outputs": [
        {
          "name": "",
          "type": "uint256"
        }
      ],
      "payable": false,
      "stateMutability": "view",
      "type": "function"
    },
    {
      "constant": true,
      "inputs": [],
      "name": "totalBetsOne",
      "outputs": [
        {
          "name": "",
          "type": "uint256"
        }
      ],
      "payable": false,
      "stateMutability": "view",
      "type": "function"
    },
    {
      "constant": true,
      "inputs": [],
      "name": "owner",
      "outputs": [
        {
          "name": "",
          "type": "address"
        }
      ],
      "payable": false,
      "stateMutability": "view",
      "type": "function"
    },
    {
      "constant": true,
      "inputs": [],
      "name": "minimumBet",
      "outputs": [
        {
          "name": "",
          "type": "uint256"
        }
      ],
      "payable": false,
      "stateMutability": "view",
      "type": "function"
    },
    {
      "constant": true,
      "inputs": [
        {
          "name": "",
          "type": "uint256"
        }
      ],
      "name": "players",
      "outputs": [
        {
          "name": "",
          "type": "address"
        }
      ],
      "payable": false,
      "stateMutability": "view",
      "type": "function"
    },
    {
      "inputs": [],
      "payable": false,
      "stateMutability": "nonpayable",
      "type": "constructor"
    },
    {
      "payable": true,
      "stateMutability": "payable",
      "type": "fallback"
    },
    {
      "constant": false,
      "inputs": [],
      "name": "kill",
      "outputs": [],
      "payable": false,
      "stateMutability": "nonpayable",
      "type": "function"
    },
    {
      "constant": true,
      "inputs": [
        {
          "name": "player",
          "type": "address"
        }
      ],
      "name": "checkPlayerExists",
      "outputs": [
        {
          "name": "",
          "type": "bool"
        }
      ],
      "payable": false,
      "stateMutability": "view",
      "type": "function"
    },
    {
      "constant": false,
      "inputs": [
        {
          "name": "_teamSelected",
          "type": "uint8"
        }
      ],
      "name": "bet",
      "outputs": [],
      "payable": true,
      "stateMutability": "payable",
      "type": "function"
    },
    {
      "constant": false,
      "inputs": [
        {
          "name": "teamWinner",
          "type": "uint16"
        }
      ],
      "name": "distributePrizes",
      "outputs": [],
      "payable": false,
      "stateMutability": "nonpayable",
      "type": "function"
    },
    {
      "constant": true,
      "inputs": [],
      "name": "AmountOne",
      "outputs": [
        {
          "name": "",
          "type": "uint256"
        }
      ],
      "payable": false,
      "stateMutability": "view",
      "type": "function"
    },
    {
      "constant": true,
      "inputs": [],
      "name": "AmountTwo",
      "outputs": [
        {
          "name": "",
          "type": "uint256"
        }
      ],
      "payable": false,
      "stateMutability": "view",
      "type": "function"
    }
  ],
  "bytecode": "0x608060405234801561001057600080fd5b50336000806101000a81548173ffffffffffffffffffffffffffffffffffffffff021916908373ffffffffffffffffffffffffffffffffffffffff160217905550655af3107a4000600181905550610a768061006d6000396000f3006080604052600436106100ba576000357c0100000000000000000000000000000000000000000000000000000000900463ffffffff1680634081d916146100bc57806341c0e1b5146101175780634996d51d1461012e5780634b114691146101595780635bf6b19f146101bf57806365733592146101ea5780637904f688146102155780638afadeb5146102465780638da5cb5b14610271578063c38a8afd146102c8578063d0821b0e146102f3578063f71d96cb14610316575b005b3480156100c857600080fd5b506100fd600480360381019080803573ffffffffffffffffffffffffffffffffffffffff169060200190929190505050610383565b604051808215151515815260200191505060405180910390f35b34801561012357600080fd5b5061012c610426565b005b34801561013a57600080fd5b506101436104b7565b6040518082815260200191505060405180910390f35b34801561016557600080fd5b5061019a600480360381019080803573ffffffffffffffffffffffffffffffffffffffff1690602001909291905050506104c1565b604051808381526020018261ffff1661ffff1681526020019250505060405180910390f35b3480156101cb57600080fd5b506101d46104f3565b6040518082815260200191505060405180910390f35b3480156101f657600080fd5b506101ff6104f9565b6040518082815260200191505060405180910390f35b34801561022157600080fd5b50610244600480360381019080803561ffff169060200190929190505050610503565b005b34801561025257600080fd5b5061025b610823565b6040518082815260200191505060405180910390f35b34801561027d57600080fd5b50610286610829565b604051808273ffffffffffffffffffffffffffffffffffffffff1673ffffffffffffffffffffffffffffffffffffffff16815260200191505060405180910390f35b3480156102d457600080fd5b506102dd61084e565b6040518082815260200191505060405180910390f35b610314600480360381019080803560ff169060200190929190505050610854565b005b34801561032257600080fd5b5061034160048036038101908080359060200190929190505050610996565b604051808273ffffffffffffffffffffffffffffffffffffffff1673ffffffffffffffffffffffffffffffffffffffff16815260200191505060405180910390f35b600080600090505b60048054905081101561041b578273ffffffffffffffffffffffffffffffffffffffff166004828154811015156103be57fe5b9060005260206000200160009054906101000a900473ffffffffffffffffffffffffffffffffffffffff1673ffffffffffffffffffffffffffffffffffffffff16141561040e5760019150610420565b808060010191505061038b565b600091505b50919050565b6000809054906101000a900473ffffffffffffffffffffffffffffffffffffffff1673ffffffffffffffffffffffffffffffffffffffff163373ffffffffffffffffffffffffffffffffffffffff1614156104b5576000809054906101000a900473ffffffffffffffffffffffffffffffffffffffff1673ffffffffffffffffffffffffffffffffffffffff16ff5b565b6000600254905090565b60056020528060005260406000206000915090508060000154908060010160009054906101000a900461ffff16905082565b60035481565b6000600354905090565b61050b6109d4565b600080600080600080600080600097506000965060009550600094505b60048054905085101561062e5760048581548110151561054457fe5b9060005260206000200160009054906101000a900473ffffffffffffffffffffffffffffffffffffffff1693508961ffff16600560008673ffffffffffffffffffffffffffffffffffffffff1673ffffffffffffffffffffffffffffffffffffffff16815260200190815260200160002060010160009054906101000a900461ffff1661ffff161415610621578389896103e8811015156105e157fe5b602002019073ffffffffffffffffffffffffffffffffffffffff16908173ffffffffffffffffffffffffffffffffffffffff168152505087806001019850505b8480600101955050610528565b60018a61ffff16141561064a5760035496506002549550610655565b600254965060035495505b600092505b8783101561079057600073ffffffffffffffffffffffffffffffffffffffff1689846103e88110151561068957fe5b602002015173ffffffffffffffffffffffffffffffffffffffff161415156106c25788836103e8811015156106ba57fe5b602002015191505b600560008373ffffffffffffffffffffffffffffffffffffffff1673ffffffffffffffffffffffffffffffffffffffff16815260200190815260200160002060000154905088836103e88110151561071657fe5b602002015173ffffffffffffffffffffffffffffffffffffffff166108fc612710886127108b0281151561074657fe5b0461271001840281151561075657fe5b049081150290604051600060405180830381858888f19350505050158015610782573d6000803e3d6000fd5b50828060010193505061065a565b600560008573ffffffffffffffffffffffffffffffffffffffff1673ffffffffffffffffffffffffffffffffffffffff1681526020019081526020016000206000808201600090556001820160006101000a81549061ffff0219169055505060006004816107fe91906109f9565b5060009650600095506000600281905550600060038190555050505050505050505050565b60025481565b6000809054906101000a900473ffffffffffffffffffffffffffffffffffffffff1681565b60015481565b34600560003373ffffffffffffffffffffffffffffffffffffffff1673ffffffffffffffffffffffffffffffffffffffff168152602001908152602001600020600001819055508060ff16600560003373ffffffffffffffffffffffffffffffffffffffff1673ffffffffffffffffffffffffffffffffffffffff16815260200190815260200160002060010160006101000a81548161ffff021916908361ffff16021790555060043390806001815401808255809150509060018203906000526020600020016000909192909190916101000a81548173ffffffffffffffffffffffffffffffffffffffff021916908373ffffffffffffffffffffffffffffffffffffffff1602179055505060018160ff1614156109825734600260008282540192505081905550610993565b346003600082825401925050819055505b50565b6004818154811015156109a557fe5b906000526020600020016000915054906101000a900473ffffffffffffffffffffffffffffffffffffffff1681565b617d00604051908101604052806103e890602082028038833980820191505090505090565b815481835581811115610a2057818360005260206000209182019101610a1f9190610a25565b5b505050565b610a4791905b80821115610a43576000816000905550600101610a2b565b5090565b905600a165627a7a723058207a925b4c9d07fc83a6f2115519b97069bbf0f1f1a345a6c853c5541fc6a0919e0029",
  "source": "pragma solidity ^ 0.4.18;\r\n\r\ncontract Betting {\r\n    address public owner;\r\n    uint256 public minimumBet;\r\n    uint256 public totalBetsOne;\r\n    uint256 public totalBetsTwo;\r\n    address[] public players;\r\n    struct Player {\r\n        uint256 amountBet;\r\n        uint16 teamSelected;\r\n    }\r\n    // The address of the player and => the user info\r\n    mapping(address => Player) public playerInfo;\r\n\r\n    function () public payable {}\r\n\r\n    constructor() public {\r\n        owner = msg.sender;\r\n        minimumBet = 100000000000000;\r\n    }\r\n\r\n    function kill() public {\r\n        if (msg.sender == owner) selfdestruct(owner);\r\n    }\r\n\r\n    function checkPlayerExists(address player) public view returns(bool) {\r\n        for (uint256 i = 0; i < players.length; i++) {\r\n            if (players[i] == player) return true;\r\n        }\r\n        return false;\r\n    }\r\n\r\n    function bet(uint8 _teamSelected) public payable {        \r\n        /*\r\n        //The first require is used to check if the player already exist\r\n        require(!checkPlayerExists(msg.sender), \"Player already exists\");\r\n        //The second one is used to see if the value sended by the player is\r\n        //Higher than the minimum value\r\n        require(msg.value >= minimumBet, \"Bet must be greater than or equal to minimum bet\");\r\n        */\r\n\r\n        //We set the player informations : amount of the bet and selected team\r\n        playerInfo[msg.sender].amountBet = msg.value;\r\n        playerInfo[msg.sender].teamSelected = _teamSelected;\r\n\r\n        //then we add the address of the player to the players array\r\n        players.push(msg.sender);\r\n        \r\n\r\n        //at the end, we increment the stakes of the team selected with the player bet\r\n        if (_teamSelected == 1) {\r\n            totalBetsOne += msg.value;\r\n        } else {\r\n            totalBetsTwo += msg.value;\r\n        }\r\n    }\r\n\r\n    // Generates a number between 1 and 10 that will be the winner\r\n    function distributePrizes(uint16 teamWinner) public {\r\n        address[1000] memory winners;\r\n        //We have to create a temporary in memory array with fixed size\r\n        //Let's choose 1000\r\n        uint256 count = 0; // This is the count for the array of winners\r\n        uint256 LoserBet = 0; //This will take the value of all losers bet\r\n        uint256 WinnerBet = 0; //This will take the value of all winners bet\r\n\r\n        //We loop through the player array to check who selected the winner team\r\n        for (uint256 i = 0; i < players.length; i++) {\r\n            address playerAddress = players[i];\r\n\r\n            //If the player selected the winner team\r\n            //We add his address to the winners array\r\n            if (playerInfo[playerAddress].teamSelected == teamWinner) {\r\n                winners[count] = playerAddress;\r\n                count++;\r\n            }\r\n        }\r\n\r\n        //We define which bet sum is the Loser one and which one is the winner\r\n        if (teamWinner == 1) {\r\n            LoserBet = totalBetsTwo;\r\n            WinnerBet = totalBetsOne;\r\n        } else {\r\n            LoserBet = totalBetsOne;\r\n            WinnerBet = totalBetsTwo;\r\n        }\r\n\r\n\r\n        //We loop through the array of winners, to give ethers to the winners\r\n        for (uint256 j = 0; j < count; j++) {\r\n            // Check that the address in this fixed array is not empty\r\n            if (winners[j] != address(0))\r\n                address add = winners[j];\r\n            uint256 amtBet = playerInfo[add].amountBet;\r\n            //Transfer the money to the user\r\n            winners[j].transfer((amtBet * (10000 + (LoserBet * 10000 / WinnerBet))) / 10000);\r\n        }\r\n        delete playerInfo[playerAddress]; // Delete all the players\r\n        players.length = 0; // Delete all the players array\r\n        LoserBet = 0; //reinitialize the bets\r\n        WinnerBet = 0;\r\n        totalBetsOne = 0;\r\n        totalBetsTwo = 0;\r\n    }\r\n\r\n    function AmountOne() public view returns(uint256) {\r\n        return totalBetsOne;\r\n    }\r\n\r\n    function AmountTwo() public view returns(uint256) {\r\n        return totalBetsTwo;\r\n    }\r\n}",
  "sourcePath": "C:\\Users\\ctufaro_admin\\My Projects\\ctufaro.github.io\\Game\\ethercontracts\\contracts\\Betting.sol",
  "compiler": {
    "name": "solc",
    "version": "0.4.24+commit.e67f0147.Emscripten.clang"
  },
  "schemaVersion": "2.0.1",
  "updatedAt": "2018-11-21T19:58:34.578Z"
}