{
  "contractName": "ExecutingContract",
  "abi": [
    {
      "constant": true,
      "inputs": [
        {
          "name": "",
          "type": "address"
        }
      ],
      "name": "balances",
      "outputs": [
        {
          "name": "",
          "type": "uint256"
        }
      ],
      "payable": false,
      "stateMutability": "view",
      "type": "function"
    },
    {
      "constant": false,
      "inputs": [],
      "name": "loadEth",
      "outputs": [],
      "payable": true,
      "stateMutability": "payable",
      "type": "function"
    },
    {
      "constant": false,
      "inputs": [],
      "name": "deposit",
      "outputs": [
        {
          "name": "success",
          "type": "bool"
        }
      ],
      "payable": true,
      "stateMutability": "payable",
      "type": "function"
    }
  ],
  "bytecode": "0x608060405234801561001057600080fd5b5061017a806100206000396000f300608060405260043610610057576000357c0100000000000000000000000000000000000000000000000000000000900463ffffffff16806327e235e31461005c578063d0e30db0146100b3578063e87650bf146100d5575b600080fd5b34801561006857600080fd5b5061009d600480360381019080803573ffffffffffffffffffffffffffffffffffffffff1690602001909291905050506100df565b6040518082815260200191505060405180910390f35b6100bb6100f7565b604051808215151515815260200191505060405180910390f35b6100dd61014c565b005b60006020528060005260406000206000915090505481565b6000346000803373ffffffffffffffffffffffffffffffffffffffff1673ffffffffffffffffffffffffffffffffffffffff168152602001908152602001600020600082825401925050819055506001905090565b5600a165627a7a7230582005eed77bf5730ffe165a168448b0752c45824b8ee219c7e740b24ca4d67a57d50029",
  "source": "pragma solidity ^ 0.4.18;\r\n\r\ncontract ExecutingContract {    \r\n    /*\r\n        Maps account addresses to the amount of ether on their balance.\r\n    */\r\n    mapping (address => uint256) public balances;\r\n\r\n    /*\r\n        Used to load up test ether\r\n    */\r\n    function loadEth () public payable {}\r\n\r\n    /*\r\n        msg.sender and msg.value are implicitly available, contain information\r\n        about the adress of a caller and amount of ether they sent with the call (in wei)\r\n    */\r\n    function deposit() public payable returns(bool success) {\r\n        balances[msg.sender] += msg.value;\r\n        return true;\r\n    }\r\n}",
  "sourcePath": "C:\\Users\\ctufaro_admin\\My Projects\\ctufaro.github.io\\Game\\ethercontracts\\contracts\\ExecutingContract.sol",
  "compiler": {
    "name": "solc",
    "version": "0.4.24+commit.e67f0147.Emscripten.clang"
  },
  "schemaVersion": "2.0.1",
  "updatedAt": "2018-12-03T20:20:57.865Z"
}