{
  "contractName": "HoldingContract",
  "abi": [
    {
      "constant": true,
      "inputs": [
        {
          "name": "",
          "type": "address"
        }
      ],
      "name": "balances",
      "outputs": [
        {
          "name": "",
          "type": "uint256"
        }
      ],
      "payable": false,
      "stateMutability": "view",
      "type": "function"
    },
    {
      "payable": true,
      "stateMutability": "payable",
      "type": "fallback"
    },
    {
      "constant": false,
      "inputs": [],
      "name": "deposit",
      "outputs": [
        {
          "name": "success",
          "type": "bool"
        }
      ],
      "payable": true,
      "stateMutability": "payable",
      "type": "function"
    },
    {
      "constant": false,
      "inputs": [
        {
          "name": "value",
          "type": "uint256"
        }
      ],
      "name": "withdraw",
      "outputs": [
        {
          "name": "success",
          "type": "bool"
        }
      ],
      "payable": false,
      "stateMutability": "nonpayable",
      "type": "function"
    },
    {
      "constant": false,
      "inputs": [
        {
          "name": "to",
          "type": "address"
        },
        {
          "name": "value",
          "type": "uint256"
        }
      ],
      "name": "transfer",
      "outputs": [
        {
          "name": "success",
          "type": "bool"
        }
      ],
      "payable": false,
      "stateMutability": "nonpayable",
      "type": "function"
    }
  ],
  "bytecode": "0x608060405234801561001057600080fd5b5061035d806100206000396000f300608060405260043610610062576000357c0100000000000000000000000000000000000000000000000000000000900463ffffffff16806327e235e3146100645780632e1a7d4d146100bb578063a9059cbb14610100578063d0e30db014610165575b005b34801561007057600080fd5b506100a5600480360381019080803573ffffffffffffffffffffffffffffffffffffffff169060200190929190505050610187565b6040518082815260200191505060405180910390f35b3480156100c757600080fd5b506100e66004803603810190808035906020019092919050505061019f565b604051808215151515815260200191505060405180910390f35b34801561010c57600080fd5b5061014b600480360381019080803573ffffffffffffffffffffffffffffffffffffffff1690602001909291908035906020019092919050505061023d565b604051808215151515815260200191505060405180910390f35b61016d6102dc565b604051808215151515815260200191505060405180910390f35b60006020528060005260406000206000915090505481565b6000816000803373ffffffffffffffffffffffffffffffffffffffff1673ffffffffffffffffffffffffffffffffffffffff168152602001908152602001600020600082825403925050819055503373ffffffffffffffffffffffffffffffffffffffff166108fc839081150290604051600060405180830381858888f19350505050158015610233573d6000803e3d6000fd5b5060019050919050565b6000816000803373ffffffffffffffffffffffffffffffffffffffff1673ffffffffffffffffffffffffffffffffffffffff168152602001908152602001600020600082825403925050819055508273ffffffffffffffffffffffffffffffffffffffff166108fc839081150290604051600060405180830381858888f193505050501580156102d1573d6000803e3d6000fd5b506001905092915050565b6000346000803373ffffffffffffffffffffffffffffffffffffffff1673ffffffffffffffffffffffffffffffffffffffff1681526020019081526020016000206000828254019250508190555060019050905600a165627a7a72305820918c18e5e5eb671bcad8c9358203e2dc418fb0b7694e8e11bef8b1d22550dfdf0029",
  "source": "pragma solidity >=0.4.22 <0.6.0;\r\n\r\ncontract HoldingContract {\r\n    /*\r\n        Maps account addresses to the amount of ether on their balance.\r\n    */\r\n    mapping (address => uint256) public balances;\r\n\r\n    function () external payable {}    \r\n\r\n    /*\r\n        msg.sender and msg.value are implicitly available, contain information\r\n        about the adress of a caller and amount of ether they sent with the call (in wei)\r\n    */\r\n    function deposit() public payable returns(bool success) {\r\n        balances[msg.sender] += msg.value;\r\n        return true;\r\n    }\r\n\r\n    /*\r\n        First verify that method called has deposited greater or equal amount of ether than\r\n        he wants to withdraw. \r\n        msg.sender.transfer function creates a transaction to send ether back to caller \r\n    */\r\n    function withdraw(uint value) public returns(bool success) {\r\n        //if(balances[msg.sender] < value) throw;\r\n        balances[msg.sender] -= value;\r\n        msg.sender.transfer(value);\r\n        return true;\r\n    }\r\n\r\n    /*\r\n        Similar to withdraw but ether is sent to specified address, not the caller\r\n    */\r\n    function transfer(address to, uint value) public returns(bool success) {\r\n        //if(balances[msg.sender] < value) throw;\r\n        balances[msg.sender] -= value;\r\n        to.transfer(value);\r\n        return true;\r\n    }\r\n}",
  "sourcePath": "C:\\Users\\ctufaro_admin\\My Projects\\ctufaro.github.io\\Game\\ethercontracts\\contracts\\HoldingContract.sol",
  "compiler": {
    "name": "solc",
    "version": "0.4.24+commit.e67f0147.Emscripten.clang"
  },
  "schemaVersion": "2.0.1",
  "updatedAt": "2018-12-04T14:33:02.621Z"
}